{
  "_format": "hh3-artifact-1",
  "contractName": "EthJobsEscrow",
  "sourceName": "contracts/EthJobsEscrow.sol",
  "abi": [
    {
      "inputs": [],
      "stateMutability": "nonpayable",
      "type": "constructor"
    },
    {
      "anonymous": false,
      "inputs": [
        {
          "indexed": true,
          "internalType": "uint256",
          "name": "jobId",
          "type": "uint256"
        },
        {
          "indexed": true,
          "internalType": "address",
          "name": "employer",
          "type": "address"
        },
        {
          "indexed": false,
          "internalType": "uint256",
          "name": "amount",
          "type": "uint256"
        }
      ],
      "name": "EscrowFunded",
      "type": "event"
    },
    {
      "anonymous": false,
      "inputs": [
        {
          "indexed": true,
          "internalType": "uint256",
          "name": "jobId",
          "type": "uint256"
        },
        {
          "indexed": true,
          "internalType": "address",
          "name": "employer",
          "type": "address"
        },
        {
          "indexed": false,
          "internalType": "uint256",
          "name": "amount",
          "type": "uint256"
        }
      ],
      "name": "FundsRefunded",
      "type": "event"
    },
    {
      "anonymous": false,
      "inputs": [
        {
          "indexed": true,
          "internalType": "uint256",
          "name": "jobId",
          "type": "uint256"
        },
        {
          "indexed": true,
          "internalType": "address",
          "name": "employee",
          "type": "address"
        },
        {
          "indexed": false,
          "internalType": "uint256",
          "name": "amount",
          "type": "uint256"
        }
      ],
      "name": "FundsReleased",
      "type": "event"
    },
    {
      "anonymous": false,
      "inputs": [
        {
          "indexed": true,
          "internalType": "uint256",
          "name": "jobId",
          "type": "uint256"
        },
        {
          "indexed": true,
          "internalType": "address",
          "name": "employer",
          "type": "address"
        },
        {
          "indexed": true,
          "internalType": "address",
          "name": "employee",
          "type": "address"
        },
        {
          "indexed": false,
          "internalType": "uint256",
          "name": "amount",
          "type": "uint256"
        },
        {
          "indexed": false,
          "internalType": "uint256",
          "name": "deadline",
          "type": "uint256"
        }
      ],
      "name": "JobCreated",
      "type": "event"
    },
    {
      "inputs": [],
      "name": "PYUSD_TOKEN",
      "outputs": [
        {
          "internalType": "address",
          "name": "",
          "type": "address"
        }
      ],
      "stateMutability": "view",
      "type": "function"
    },
    {
      "inputs": [
        {
          "internalType": "address",
          "name": "_employee",
          "type": "address"
        },
        {
          "internalType": "uint256",
          "name": "_deadline",
          "type": "uint256"
        },
        {
          "internalType": "uint256",
          "name": "_amount",
          "type": "uint256"
        }
      ],
      "name": "createJob",
      "outputs": [
        {
          "internalType": "uint256",
          "name": "jobId",
          "type": "uint256"
        }
      ],
      "stateMutability": "nonpayable",
      "type": "function"
    },
    {
      "inputs": [
        {
          "internalType": "uint256",
          "name": "_jobId",
          "type": "uint256"
        }
      ],
      "name": "fundJob",
      "outputs": [],
      "stateMutability": "nonpayable",
      "type": "function"
    },
    {
      "inputs": [
        {
          "internalType": "address",
          "name": "_employee",
          "type": "address"
        }
      ],
      "name": "getEmployeeJobs",
      "outputs": [
        {
          "internalType": "uint256[]",
          "name": "",
          "type": "uint256[]"
        }
      ],
      "stateMutability": "view",
      "type": "function"
    },
    {
      "inputs": [
        {
          "internalType": "address",
          "name": "_employer",
          "type": "address"
        }
      ],
      "name": "getEmployerJobs",
      "outputs": [
        {
          "internalType": "uint256[]",
          "name": "",
          "type": "uint256[]"
        }
      ],
      "stateMutability": "view",
      "type": "function"
    },
    {
      "inputs": [
        {
          "internalType": "uint256",
          "name": "_jobId",
          "type": "uint256"
        }
      ],
      "name": "getJob",
      "outputs": [
        {
          "internalType": "address",
          "name": "_employer",
          "type": "address"
        },
        {
          "internalType": "address",
          "name": "_employee",
          "type": "address"
        },
        {
          "internalType": "uint256",
          "name": "_amount",
          "type": "uint256"
        },
        {
          "internalType": "uint256",
          "name": "_deadline",
          "type": "uint256"
        },
        {
          "internalType": "bool",
          "name": "_isFunded",
          "type": "bool"
        },
        {
          "internalType": "bool",
          "name": "_isCompleted",
          "type": "bool"
        },
        {
          "internalType": "bool",
          "name": "_isRefunded",
          "type": "bool"
        }
      ],
      "stateMutability": "view",
      "type": "function"
    },
    {
      "inputs": [],
      "name": "getPYUSDBalance",
      "outputs": [
        {
          "internalType": "uint256",
          "name": "",
          "type": "uint256"
        }
      ],
      "stateMutability": "view",
      "type": "function"
    },
    {
      "inputs": [],
      "name": "getTotalJobs",
      "outputs": [
        {
          "internalType": "uint256",
          "name": "",
          "type": "uint256"
        }
      ],
      "stateMutability": "view",
      "type": "function"
    },
    {
      "inputs": [
        {
          "internalType": "uint256",
          "name": "",
          "type": "uint256"
        }
      ],
      "name": "jobs",
      "outputs": [
        {
          "internalType": "address",
          "name": "employer",
          "type": "address"
        },
        {
          "internalType": "address",
          "name": "employee",
          "type": "address"
        },
        {
          "internalType": "uint256",
          "name": "amount",
          "type": "uint256"
        },
        {
          "internalType": "uint256",
          "name": "deadline",
          "type": "uint256"
        },
        {
          "internalType": "bool",
          "name": "isFunded",
          "type": "bool"
        },
        {
          "internalType": "bool",
          "name": "isCompleted",
          "type": "bool"
        },
        {
          "internalType": "bool",
          "name": "isRefunded",
          "type": "bool"
        }
      ],
      "stateMutability": "view",
      "type": "function"
    },
    {
      "inputs": [],
      "name": "nextJobId",
      "outputs": [
        {
          "internalType": "uint256",
          "name": "",
          "type": "uint256"
        }
      ],
      "stateMutability": "view",
      "type": "function"
    },
    {
      "inputs": [
        {
          "internalType": "uint256",
          "name": "_jobId",
          "type": "uint256"
        }
      ],
      "name": "refund",
      "outputs": [],
      "stateMutability": "nonpayable",
      "type": "function"
    },
    {
      "inputs": [
        {
          "internalType": "uint256",
          "name": "_jobId",
          "type": "uint256"
        }
      ],
      "name": "releaseFunds",
      "outputs": [],
      "stateMutability": "nonpayable",
      "type": "function"
    },
    {
      "stateMutability": "payable",
      "type": "receive"
    }
  ],
  "bytecode": "0x6080604052348015600e575f5ffd5b5060015f556112c6806100205f395ff3fe6080604052600436106100a8575f3560e01c80636613be4e116100625780636613be4e146102885780638d22b863146102c7578063b0c2aa5e146102e6578063bf22c457146102fa578063d0bb210414610319578063e035347d14610338575f5ffd5b806304f6f4c114610130578063180aedf314610157578063278ecde1146102085780633aee7996146102295780634d68282f1461023d5780635f58cb4f1461025c575f5ffd5b3661012c5760405162461bcd60e51b815260206004820152604360248201527f5468697320636f6e7472616374206f6e6c79206163636570747320505955534460448201527f20746f6b656e732e20455448207472616e7366657273206e6f7420616c6c6f7760648201526232b21760e91b608482015260a4015b60405180910390fd5b5f5ffd5b34801561013b575f5ffd5b50610144610357565b6040519081526020015b60405180910390f35b348015610162575f5ffd5b506101c261017136600461101c565b600160208190525f9182526040909120805491810154600282015460038301546004909301546001600160a01b039485169490921692909160ff808216916101008104821691620100009091041687565b604080516001600160a01b03988916815297909616602088015294860193909352606085019190915215156080840152151560a0830152151560c082015260e00161014e565b348015610213575f5ffd5b5061022761022236600461101c565b6103cf565b005b348015610234575f5ffd5b506101446106a1565b348015610248575f5ffd5b5061022761025736600461101c565b6106b0565b348015610267575f5ffd5b5061027b61027636600461104e565b610927565b60405161014e919061106e565b348015610293575f5ffd5b506102af73cac524bca292aaade2df8a05cc58f0a65b1b3bb981565b6040516001600160a01b03909116815260200161014e565b3480156102d2575f5ffd5b506102276102e136600461101c565b6109e6565b3480156102f1575f5ffd5b506101445f5481565b348015610305575f5ffd5b506101c261031436600461101c565b610cba565b348015610324575f5ffd5b5061027b61033336600461104e565b610d49565b348015610343575f5ffd5b506101446103523660046110b0565b610e03565b6040516370a0823160e01b81523060048201525f9073cac524bca292aaade2df8a05cc58f0a65b1b3bb9906370a0823190602401602060405180830381865afa1580156103a6573d5f5f3e3d5ffd5b505050506040513d601f19601f820116820180604052508101906103ca91906110e0565b905090565b805f811180156103df57505f5481105b6103fb5760405162461bcd60e51b8152600401610123906110f7565b5f8281526001602052604090205482906001600160a01b031633146104325760405162461bcd60e51b815260040161012390611123565b5f83815260016020526040902060040154839060ff1661048f5760405162461bcd60e51b8152602060048201526018602482015277129bd8881b5d5cdd08189948199d5b99195908199a5c9cdd60421b6044820152606401610123565b5f848152600160205260409020600381015442116104ef5760405162461bcd60e51b815260206004820152601b60248201527f446561646c696e6520686173206e6f74207061737365642079657400000000006044820152606401610123565b6004810154610100900460ff16156105195760405162461bcd60e51b815260040161012390611167565b600481015462010000900460ff16156105445760405162461bcd60e51b81526004016101239061119e565b5f81600201541161058c5760405162461bcd60e51b8152602060048201526012602482015271139bc8199d5b991cc81d1bc81c99599d5b9960721b6044820152606401610123565b6002810180545f918290556004808401805462ff0000191662010000179055835460405163a9059cbb60e01b81526001600160a01b03909116918101919091526024810182905290919073cac524bca292aaade2df8a05cc58f0a65b1b3bb99063a9059cbb906044016020604051808303815f875af1158015610611573d5f5f3e3d5ffd5b505050506040513d601f19601f8201168201806040525081019061063591906111d5565b9050806106545760405162461bcd60e51b8152600401610123906111f4565b82546040518381526001600160a01b039091169088907f80b577b4fc190ab86d963549e29f496afd079c5d81a2480d61217d4b5060a28c906020015b60405180910390a350505050505050565b5f60015f546103ca9190611237565b805f811180156106c057505f5481105b6106dc5760405162461bcd60e51b8152600401610123906110f7565b5f8281526001602052604090205482906001600160a01b031633146107135760405162461bcd60e51b815260040161012390611123565b5f83815260016020526040902060040154839060ff166107705760405162461bcd60e51b8152602060048201526018602482015277129bd8881b5d5cdd08189948199d5b99195908199a5c9cdd60421b6044820152606401610123565b5f8481526001602052604090206004810154610100900460ff16156107a75760405162461bcd60e51b815260040161012390611167565b600481015462010000900460ff16156107d25760405162461bcd60e51b81526004016101239061119e565b5f81600201541161081b5760405162461bcd60e51b81526020600482015260136024820152724e6f2066756e647320746f2072656c6561736560681b6044820152606401610123565b6002810180545f918290556004808401805461ff001916610100179055600184015460405163a9059cbb60e01b81526001600160a01b03909116918101919091526024810182905290919073cac524bca292aaade2df8a05cc58f0a65b1b3bb99063a9059cbb906044016020604051808303815f875af11580156108a1573d5f5f3e3d5ffd5b505050506040513d601f19601f820116820180604052508101906108c591906111d5565b9050806108e45760405162461bcd60e51b8152600401610123906111f4565b60018301546040518381526001600160a01b039091169088907f6e3c6096795c8298a218b2cfb8bde42726ff7c9a3d27b4d3ba41ab7f74feb5fb90602001610690565b60605f60015f546109389190611237565b67ffffffffffffffff81111561095057610950611250565b604051908082528060200260200182016040528015610979578160200160208202803683370190505b5090505f60015b5f548110156109dd575f818152600160205260409020546001600160a01b038087169116036109d557808383815181106109bc576109bc611264565b6020908102919091010152816109d181611278565b9250505b600101610980565b50815292915050565b805f811180156109f657505f5481105b610a125760405162461bcd60e51b8152600401610123906110f7565b5f8281526001602052604090205482906001600160a01b03163314610a495760405162461bcd60e51b815260040161012390611123565b5f838152600160205260409020600481015460ff1615610aa35760405162461bcd60e51b8152602060048201526015602482015274129bd8881a5cc8185b1c9958591e48199d5b991959605a1b6044820152606401610123565b6004810154610100900460ff1615610acd5760405162461bcd60e51b815260040161012390611167565b600481015462010000900460ff1615610af85760405162461bcd60e51b81526004016101239061119e565b6002810154604051636eb1769f60e11b815233600482015230602482015273cac524bca292aaade2df8a05cc58f0a65b1b3bb99190829063dd62ed3e90604401602060405180830381865afa158015610b53573d5f5f3e3d5ffd5b505050506040513d601f19601f82011682018060405250810190610b7791906110e0565b1015610bc55760405162461bcd60e51b815260206004820152601c60248201527f496e73756666696369656e7420505955534420616c6c6f77616e6365000000006044820152606401610123565b60028201546040516323b872dd60e01b815233600482015230602482015260448101919091525f906001600160a01b038316906323b872dd906064016020604051808303815f875af1158015610c1d573d5f5f3e3d5ffd5b505050506040513d601f19601f82011682018060405250810190610c4191906111d5565b905080610c605760405162461bcd60e51b8152600401610123906111f4565b60048301805460ff191660011790556002830154604051339188917f4a2cd88ec7a748d5b20b3512d7249c67745777b219009075c745923684e9653d91610caa9190815260200190565b60405180910390a3505050505050565b5f5f5f5f5f5f5f875f81118015610cd157505f5481105b610ced5760405162461bcd60e51b8152600401610123906110f7565b5050505f9586525050600160208190526040909420805494810154600282015460038301546004909301546001600160a01b0397881698979092169690955091935060ff80821693506101008204811692620100009092041690565b60605f60015f54610d5a9190611237565b67ffffffffffffffff811115610d7257610d72611250565b604051908082528060200260200182016040528015610d9b578160200160208202803683370190505b5090505f60015b5f548110156109dd575f81815260016020819052604090912001546001600160a01b03808716911603610dfb5780838381518110610de257610de2611264565b602090810291909101015281610df781611278565b9250505b600101610da2565b5f6001600160a01b038416610e5a5760405162461bcd60e51b815260206004820152601860248201527f496e76616c696420656d706c6f796565206164647265737300000000000000006044820152606401610123565b5f8211610ea95760405162461bcd60e51b815260206004820152601d60248201527f416d6f756e74206d7573742062652067726561746572207468616e20300000006044820152606401610123565b428311610ef85760405162461bcd60e51b815260206004820152601e60248201527f446561646c696e65206d75737420626520696e207468652066757475726500006044820152606401610123565b505f805490819080610f0983611278565b90915550506040805160e081018252338082526001600160a01b038781166020808501828152858701898152606087018b81525f6080890181815260a08a0182815260c08b018381528d84526001808952938d90209b518c54908b166001600160a01b0319918216178d559651938c01805494909a16939096169290921790975591516002890155516003880155935160049096018054945191511515620100000262ff0000199215156101000261ff00199815159890981661ffff199096169590951796909617169290921790935583518681529081018790529192909184917f9f708ef692516d5076ae0cb779688ef01c75caad86fb2e2fa1b80612ee7e64a4910160405180910390a49392505050565b5f6020828403121561102c575f5ffd5b5035919050565b80356001600160a01b0381168114611049575f5ffd5b919050565b5f6020828403121561105e575f5ffd5b61106782611033565b9392505050565b602080825282518282018190525f918401906040840190835b818110156110a5578351835260209384019390920191600101611087565b509095945050505050565b5f5f5f606084860312156110c2575f5ffd5b6110cb84611033565b95602085013595506040909401359392505050565b5f602082840312156110f0575f5ffd5b5051919050565b602080825260129082015271129bd888191bd95cc81b9bdd08195e1a5cdd60721b604082015260600190565b60208082526024908201527f4f6e6c7920656d706c6f7965722063616e2063616c6c20746869732066756e636040820152633a34b7b760e11b606082015260800190565b60208082526018908201527f4a6f6220697320616c726561647920636f6d706c657465640000000000000000604082015260600190565b60208082526017908201527f4a6f6220697320616c726561647920726566756e646564000000000000000000604082015260600190565b5f602082840312156111e5575f5ffd5b81518015158114611067575f5ffd5b60208082526015908201527414165554d1081d1c985b9cd9995c8819985a5b1959605a1b604082015260600190565b634e487b7160e01b5f52601160045260245ffd5b8181038181111561124a5761124a611223565b92915050565b634e487b7160e01b5f52604160045260245ffd5b634e487b7160e01b5f52603260045260245ffd5b5f6001820161128957611289611223565b506001019056fea2646970667358221220f0ebc553fa5dc98b58683096a688bc9b004c6333a353c9d34687226fb609cbc164736f6c634300081c0033",
  "linkReferences": {},
  "deployedLinkReferences": {},
  "immutableReferences": {},
  "inputSourceName": "project/contracts/EthJobsEscrow.sol",
  "buildInfoId": "solc-0_8_28-319e47694a9b685ff886d03964f0d41e9587384c"
}