{
  "_format": "hh3-artifact-1",
  "contractName": "EthJobsEscrowFactory",
  "sourceName": "contracts/EthJobsEscrowFactory.sol",
  "abi": [
    {
      "anonymous": false,
      "inputs": [
        {
          "indexed": true,
          "internalType": "address",
          "name": "escrowAddress",
          "type": "address"
        },
        {
          "indexed": true,
          "internalType": "address",
          "name": "employer",
          "type": "address"
        },
        {
          "indexed": true,
          "internalType": "address",
          "name": "employee",
          "type": "address"
        },
        {
          "indexed": false,
          "internalType": "uint256",
          "name": "amount",
          "type": "uint256"
        },
        {
          "indexed": false,
          "internalType": "uint256",
          "name": "deadline",
          "type": "uint256"
        }
      ],
      "name": "EscrowCreated",
      "type": "event"
    },
    {
      "inputs": [],
      "name": "PYUSD_TOKEN",
      "outputs": [
        {
          "internalType": "address",
          "name": "",
          "type": "address"
        }
      ],
      "stateMutability": "view",
      "type": "function"
    },
    {
      "inputs": [
        {
          "internalType": "address",
          "name": "_employee",
          "type": "address"
        },
        {
          "internalType": "uint256",
          "name": "_deadline",
          "type": "uint256"
        },
        {
          "internalType": "uint256",
          "name": "_amount",
          "type": "uint256"
        }
      ],
      "name": "createEscrow",
      "outputs": [
        {
          "internalType": "address",
          "name": "escrowAddress",
          "type": "address"
        }
      ],
      "stateMutability": "nonpayable",
      "type": "function"
    },
    {
      "inputs": [
        {
          "internalType": "uint256",
          "name": "",
          "type": "uint256"
        }
      ],
      "name": "deployedEscrows",
      "outputs": [
        {
          "internalType": "address",
          "name": "",
          "type": "address"
        }
      ],
      "stateMutability": "view",
      "type": "function"
    },
    {
      "inputs": [],
      "name": "getAllEscrows",
      "outputs": [
        {
          "internalType": "address[]",
          "name": "",
          "type": "address[]"
        }
      ],
      "stateMutability": "view",
      "type": "function"
    },
    {
      "inputs": [],
      "name": "getEscrowCount",
      "outputs": [
        {
          "internalType": "uint256",
          "name": "",
          "type": "uint256"
        }
      ],
      "stateMutability": "view",
      "type": "function"
    }
  ],
  "bytecode": "0x6080604052348015600e575f5ffd5b506110338061001c5f395ff3fe608060405234801561000f575f5ffd5b5060043610610055575f3560e01c806316b1513514610059578063323f11421461006e5780636613be4e146100995780639a6ac36f146100b4578063e2ecb311146100c9575b5f5ffd5b5f546040519081526020015b60405180910390f35b61008161007c36600461040d565b6100dc565b6040516001600160a01b039091168152602001610065565b61008173cac524bca292aaade2df8a05cc58f0a65b1b3bb981565b6100bc610103565b6040516100659190610424565b6100816100d736600461046f565b610162565b5f81815481106100ea575f80fd5b5f918252602090912001546001600160a01b0316905081565b60605f80548060200260200160405190810160405280929190818152602001828054801561015857602002820191905f5260205f20905b81546001600160a01b0316815260019091019060200180831161013a575b5050505050905090565b5f6001600160a01b0384166101be5760405162461bcd60e51b815260206004820152601860248201527f496e76616c696420656d706c6f7965652061646472657373000000000000000060448201526064015b60405180910390fd5b5f821161020d5760405162461bcd60e51b815260206004820152601d60248201527f416d6f756e74206d7573742062652067726561746572207468616e203000000060448201526064016101b5565b42831161025c5760405162461bcd60e51b815260206004820152601e60248201527f446561646c696e65206d75737420626520696e2074686520667574757265000060448201526064016101b5565b604051636eb1769f60e11b815233600482015230602482015273cac524bca292aaade2df8a05cc58f0a65b1b3bb9908390829063dd62ed3e90604401602060405180830381865afa1580156102b3573d5f5f3e3d5ffd5b505050506040513d601f19601f820116820180604052508101906102d791906104ac565b10156103255760405162461bcd60e51b815260206004820152601c60248201527f496e73756666696369656e7420505955534420616c6c6f77616e63650000000060448201526064016101b5565b84848460405161033490610400565b6001600160a01b03909316835260208301919091526040820152606001604051809103905ff08015801561036a573d5f5f3e3d5ffd5b505f80546001810182559080527f290decd9548b62a8d60345a988386fc84ba6bc95484008f6362f93160ef3e5630180546001600160a01b0319166001600160a01b0383811691821790925560408051878152602081018990529395509188169233927f8de9648925318a4011d9b77a169a4debb04642dff004df3972f3a88a54ca0155910160405180910390a4509392505050565b610b3a806104c483390190565b5f6020828403121561041d575f5ffd5b5035919050565b602080825282518282018190525f918401906040840190835b818110156104645783516001600160a01b031683526020938401939092019160010161043d565b509095945050505050565b5f5f5f60608486031215610481575f5ffd5b83356001600160a01b0381168114610497575f5ffd5b95602085013595506040909401359392505050565b5f602082840312156104bc575f5ffd5b505191905056fe608060405234801561000f575f5ffd5b50604051610b3a380380610b3a83398101604081905261002e9161023f565b6001600160a01b0383166100895760405162461bcd60e51b815260206004820152601860248201527f496e76616c696420656d706c6f7965652061646472657373000000000000000060448201526064015b60405180910390fd5b5f81116100d85760405162461bcd60e51b815260206004820152601d60248201527f416d6f756e74206d7573742062652067726561746572207468616e20300000006044820152606401610080565b4282116101275760405162461bcd60e51b815260206004820152601e60248201527f446561646c696e65206d75737420626520696e207468652066757475726500006044820152606401610080565b5f8054336001600160a01b03199182168117909255600180549091166001600160a01b038616179055600282905560038390556040516323b872dd60e01b815260048101919091523060248201526044810182905273cac524bca292aaade2df8a05cc58f0a65b1b3bb9906323b872dd906064016020604051808303815f875af11580156101b7573d5f5f3e3d5ffd5b505050506040513d601f19601f820116820180604052508101906101db919061027e565b506001545f546002546003546040516001600160a01b039485169493909316927f19b28839610a06f9af632bf905035a4022eeb0dd72eafef65125500e6fe54cf79261022f92908252602082015260400190565b60405180910390a35050506102a4565b5f5f5f60608486031215610251575f5ffd5b83516001600160a01b0381168114610267575f5ffd5b602085015160409095015190969495509392505050565b5f6020828403121561028e575f5ffd5b8151801515811461029d575f5ffd5b9392505050565b610889806102b15f395ff3fe608060405260043610610092575f3560e01c8063801f396111610057578063801f3961146101bf578063a0a1a7d71461021d578063aa8c217c1461023c578063ae200e7914610251578063b507e0991461026f575f5ffd5b806304f6f4c11461011a57806329dcb0cf14610141578063590e1ae3146101565780636613be4e1461016c57806369d89575146101ab575f5ffd5b366101165760405162461bcd60e51b815260206004820152604360248201527f5468697320636f6e7472616374206f6e6c79206163636570747320505955534460448201527f20746f6b656e732e20455448207472616e7366657273206e6f7420616c6c6f7760648201526232b21760e91b608482015260a4015b60405180910390fd5b5f5ffd5b348015610125575f5ffd5b5061012e61028e565b6040519081526020015b60405180910390f35b34801561014c575f5ffd5b5061012e60035481565b348015610161575f5ffd5b5061016a610306565b005b348015610177575f5ffd5b5061019373cac524bca292aaade2df8a05cc58f0a65b1b3bb981565b6040516001600160a01b039091168152602001610138565b3480156101b6575f5ffd5b5061016a6104e4565b3480156101ca575f5ffd5b506101d361066c565b604080516001600160a01b03998a1681529890971660208901529587019490945260608601929092526080850152151560a0840152151560c083015260e082015261010001610138565b348015610228575f5ffd5b50600154610193906001600160a01b031681565b348015610247575f5ffd5b5061012e60025481565b34801561025c575f5ffd5b505f54610193906001600160a01b031681565b34801561027a575f5ffd5b5061012e6102893660046107ac565b61072a565b6040516370a0823160e01b81523060048201525f9073cac524bca292aaade2df8a05cc58f0a65b1b3bb9906370a0823190602401602060405180830381865afa1580156102dd573d5f5f3e3d5ffd5b505050506040513d601f19601f8201168201806040525081019061030191906107d9565b905090565b5f546001600160a01b0316331461032f5760405162461bcd60e51b815260040161010d906107f0565b60035442116103805760405162461bcd60e51b815260206004820152601b60248201527f446561646c696e6520686173206e6f7420706173736564207965740000000000604482015260640161010d565b5f600254116103c65760405162461bcd60e51b8152602060048201526012602482015271139bc8199d5b991cc81d1bc81c99599d5b9960721b604482015260640161010d565b600280545f91829055815460405163a9059cbb60e01b81526001600160a01b0390911660048201526024810182905290919073cac524bca292aaade2df8a05cc58f0a65b1b3bb99063a9059cbb906044016020604051808303815f875af1158015610433573d5f5f3e3d5ffd5b505050506040513d601f19601f820116820180604052508101906104579190610834565b90508061049e5760405162461bcd60e51b815260206004820152601560248201527414165554d1081d1c985b9cd9995c8819985a5b1959605a1b604482015260640161010d565b5f546040518381526001600160a01b03909116907fbada1a1bf129e41a8af5abe00997bd8a8cb1770cb0cf68314eb4b1d6c4271397906020015b60405180910390a25050565b5f546001600160a01b0316331461050d5760405162461bcd60e51b815260040161010d906107f0565b5f600254116105545760405162461bcd60e51b81526020600482015260136024820152724e6f2066756e647320746f2072656c6561736560681b604482015260640161010d565b600280545f9182905560015460405163a9059cbb60e01b81526001600160a01b0390911660048201526024810182905290919073cac524bca292aaade2df8a05cc58f0a65b1b3bb99063a9059cbb906044016020604051808303815f875af11580156105c2573d5f5f3e3d5ffd5b505050506040513d601f19601f820116820180604052508101906105e69190610834565b90508061062d5760405162461bcd60e51b815260206004820152601560248201527414165554d1081d1c985b9cd9995c8819985a5b1959605a1b604482015260640161010d565b6001546040518381526001600160a01b03909116907f221c08a06b07a64803b3787861a3f276212fcccb51c2e6234077a9b8cb13047a906020016104d8565b5f80546001546002546003546040516370a0823160e01b815230600482015285948594859485948594859485946001600160a01b039182169491169290914290828211908415159073cac524bca292aaade2df8a05cc58f0a65b1b3bb9906370a0823190602401602060405180830381865afa1580156106ee573d5f5f3e3d5ffd5b505050506040513d601f19601f8201168201806040525081019061071291906107d9565b969f959e50939c50919a509850965094509092509050565b6040516370a0823160e01b81526001600160a01b03821660048201525f9073cac524bca292aaade2df8a05cc58f0a65b1b3bb9906370a0823190602401602060405180830381865afa158015610782573d5f5f3e3d5ffd5b505050506040513d601f19601f820116820180604052508101906107a691906107d9565b92915050565b5f602082840312156107bc575f5ffd5b81356001600160a01b03811681146107d2575f5ffd5b9392505050565b5f602082840312156107e9575f5ffd5b5051919050565b60208082526024908201527f4f6e6c7920656d706c6f7965722063616e2063616c6c20746869732066756e636040820152633a34b7b760e11b606082015260800190565b5f60208284031215610844575f5ffd5b815180151581146107d2575f5ffdfea2646970667358221220e0ee6c73bf10b30f637cb197ef696a7a1886878603dcc8d0c249c240aefffe2d64736f6c634300081c0033a2646970667358221220ed9a905815f45674ada47e89f8fd3d4926c8ee0116fcf2b768b92cb94ee0fe8964736f6c634300081c0033",
  "linkReferences": {},
  "deployedLinkReferences": {},
  "immutableReferences": {},
  "inputSourceName": "project/contracts/EthJobsEscrowFactory.sol",
  "buildInfoId": "solc-0_8_28-e057a1b4cea13b91e01b4a1c4d52284a43bd1403"
}